:100000000C9462000C948A000C948A000C948A0070
:100010000C948A000C948A000C948A000C948A0038
:100020000C948A000C948A000C948A000C948A0028
:100030000C948A000C948A000C948A000C948A0018
:100040000C9416030C948A000C9486030C946003A1
:100050000C948A000C948A000C948A000C948A00F8
:100060000C948A000C948A000000000024002700F1
:100070002A0000000000250028002B0000000000DE
:1000800023002600290004040404040404040202DA
:100090000202020203030303030301020408102007
:1000A0004080010204081020010204081020000012
:1000B0000008000201000003040700000000000027
:1000C0000000CD0411241FBECFEFD8E0DEBFCDBFAE
:1000D00011E0A0E0B1E0E2E5FAE002C005900D9287
:1000E000A83AB107D9F722E0A8EAB1E001C01D9211
:1000F000AE34B207E1F710E0C2E6D0E004C02197C9
:10010000FE010E941C05C136D107C9F70E94B80341
:100110000C9427050C940000FC01538D448D252F71
:1001200030E0842F90E0821B930B541710F0CF9691
:10013000089501970895FC01918D828D981761F0C3
:10014000828DDF01A80FB11D5D968C91928D9F5F0E
:100150009F73928F90E008958FEF9FEF0895FC01B9
:10016000918D828D981731F0828DE80FF11D858D6C
:1001700090E008958FEF9FEF0895FC01918D228DFF
:10018000892F90E0805C9F4F821B91098F73992784
:100190000895FC01848DDF01A80FB11DA35ABF4F44
:1001A0002C91848D90E001968F739927848FA68976
:1001B000B7892C93A089B1898C91837080648C93CA
:1001C000938D848D981306C00288F389E02D808179
:1001D0008F7D80830895EF92FF920F931F93CF93AB
:1001E000DF93EC0181E0888F9B8D8C8D981305C087
:1001F000E889F989808185FD26C0F62E0B8D10E0F7
:100200000F5F1F4F0F731127E02E8C8DE8120CC06B
:100210000FB607FCFACFE889F989808185FFF5CF11
:10022000CE010E94C900F1CF8B8DFE01E80FF11DB8
:10023000E35AFF4FF0829FB7F8940B8FEA89FB894E
:10024000808180620AC09FB7F894EE89FF8960833D
:10025000E889F98980818370806480839FBF81E011
:1002600090E0DF91CF911F910F91FF90EF90089553
:10027000CF93DF93EC01888D8823C9F0EA89FB894D
:10028000808185FD05C0A889B9898C9186FD0FC044
:100290000FB607FCF5CF808185FFF2CFA889B98919
:1002A0008C9185FFEDCFCE010E94C900E7CFDF9191
:1002B000CF91089581EB91E00E94BD0021E0892B50
:1002C00009F420E0822F089580E090E0892B29F046
:1002D0000E945A0181110C9400000895833081F02E
:1002E00028F4813099F08230A1F008958730A9F088
:1002F0008830B9F08430D1F4809180008F7D03C0C4
:10030000809180008F7780938000089584B58F77E7
:1003100002C084B58F7D84BD08958091B0008F7731
:1003200003C08091B0008F7D8093B0000895CF937B
:10033000DF93282F30E0F901E255FF4F8491F90156
:10034000E656FF4FD491F901EA57FF4FC491CC23F1
:1003500091F081110E946E01EC2FF0E0EE0FFF1F73
:10036000E458FF4FA591B491EC91ED2381E090E02A
:1003700021F480E002C080E090E0DF91CF91089509
:100380001F93CF93DF93282F30E0F901E255FF4F01
:100390008491F901E656FF4FD491F901EA57FF4FD6
:1003A000C491CC23C1F0162F81110E946E01EC2F55
:1003B000F0E0EE0FFF1FEE58FF4FA591B4919FB7ED
:1003C000F894111104C08C91D095D82302C0EC91FF
:1003D000DE2BDC939FBFDF91CF911F910895CF93C8
:1003E000DF9390E0FC01E656FF4F2491FC01EA57B1
:1003F000FF4F8491882361F190E0880F991FFC01E1
:10040000E859FF4FC591D491FC01EE58FF4FA591DB
:10041000B491611109C09FB7F89488812095822317
:100420008883EC912E230BC0623061F49FB7F8945F
:100430008881322F309583238883EC912E2B2C9347
:100440009FBF06C08FB7F894E8812E2B28838FBFFB
:10045000DF91CF9108951F93CF93DF93182FEB0176
:1004600061E00E94EF01209711F460E004C0CF3FEB
:10047000D10539F461E0812FDF91CF911F910C9468
:10048000C001E12FF0E0E255FF4FE491E330F9F0D5
:1004900048F4E130B9F0E230A1F584B5806284BD62
:1004A000C8BD34C0E730E9F0E83019F1E43049F56F
:1004B00080918000806280938000D0938B00C093F5
:1004C0008A0024C084B5806884BDC7BD1FC08091E8
:1004D0008000806880938000D0938900C09388005A
:1004E00015C08091B00080688093B000C093B300C5
:1004F0000DC08091B00080628093B000C093B400C2
:1005000005C0C038D1050CF0B5CFAFCFDF91CF918A
:100510001F9108950F931F93CF93DF938C01EB01ED
:1005200060E070E08BE00E942B02B8018AE00E943C
:100530002B02BE0189E0DF91CF911F910F910C94A6
:100540002B023FB7F8948091AD019091AE01A0913C
:10055000AF01B091B00126B5A89B05C02F3F19F09F
:100560000196A11DB11D3FBFBA2FA92F982F882733
:10057000820F911DA11DB11DBC01CD0142E0660F8E
:10058000771F881F991F4A95D1F70895CF92DF9260
:10059000EF92FF920F931F93CF93DF936C017A0139
:1005A0008B01C0E0D0E0CE15DF0581F0D8016D9160
:1005B0008D01D601ED91FC910190F081E02DC601F5
:1005C0000995892B11F02196EECF7E01C701DF91AD
:1005D000CF911F910F91FF90EF90DF90CF900895F2
:1005E000089580E090E00895009769F0FC01019083
:1005F0000020E9F73197AF01481B590BBC0181EB93
:1006000091E00C94C60280E090E00895CF93DF93D0
:100610000E94F402EC0182E191E00E94F4028C0F4E
:100620009D1FDF91CF9108950E9422051F920F9286
:100630000FB60F9211242F933F938F939F93AF93F5
:10064000BF938091A9019091AA01A091AB01B091B3
:10065000AC013091A80123E0230F2D3720F401963F
:10066000A11DB11D05C026E8230F0296A11DB11DD5
:100670002093A8018093A9019093AA01A093AB01B4
:10068000B093AC018091AD019091AE01A091AF010A
:10069000B091B0010196A11DB11D8093AD01909361
:1006A000AE01A093AF01B093B001BF91AF919F9104
:1006B0008F913F912F910F900FBE0F901F90189523
:1006C0001F920F920FB60F9211242F933F934F93C7
:1006D0005F936F937F938F939F93AF93BF93EF93AA
:1006E000FF9381EB91E00E94C900FF91EF91BF91D0
:1006F000AF919F918F917F916F915F914F913F91BA
:100700002F910F900FBE0F901F9018951F920F9270
:100710000FB60F9211242F938F939F93EF93FF9314
:10072000E091C101F091C2018081E091C701F09197
:10073000C80182FD12C090818091CA018F5F8F73C2
:100740002091CB01821751F0E091CA01F0E0EF5403
:10075000FE4F958F8093CA0101C08081FF91EF9178
:100760009F918F912F910F900FBE0F901F90189512
:10077000CF93DF93CDB7DEB7A1970FB6F894DEBF66
:100780000FBECDBF789484B5826084BD84B581608E
:1007900084BD85B5826085BD85B5816085BD80914C
:1007A0006E00816080936E001092810080918100C4
:1007B00082608093810080918100816080938100BC
:1007C000809180008160809380008091B10084607E
:1007D0008093B1008091B00081608093B0008091DF
:1007E0007A00846080937A0080917A00826080939E
:1007F0007A0080917A00816080937A0080917A00FB
:10080000806880937A001092C10061E089E00E94C4
:10081000EF0161E08AE00E94EF0161E08BE00E945D
:10082000EF0160E085E00E94EF0160E081E10E945D
:10083000EF0193E4392E2AE0822E912CA12CB12CC9
:1008400030927C0080917A00806480937A0080915D
:100850007A0086FDFCCF009178008091790010E04D
:10086000182B85E191E00E94F4022801012E000C72
:100870006608770817FF20C06DE281EB91E00E94C7
:10088000EB0022273327A901241935094609570906
:1008900019A2CE0181967C01CA01B901A50194017A
:1008A0000E94FA04605DF70162937F012115310512
:1008B0004105510589F715C0A301920119A2CE0186
:1008C00081967C01CA01B901A50194010E94FA0434
:1008D000605DF70162937F012115310541055105E6
:1008E00089F7C7010E94F4020E94A1026B017C01FA
:1008F00084EF482E55245394612C712C0E94A10240
:10090000DC01CB018C199D09AE09BF09883E9340DB
:10091000A105B10598F3F1E04F1A5108610871087B
:1009200028EEC20E23E0D21EE11CF11C411451043A
:100930006104710419F785E00E949701892BC1F4C5
:100940000C3411054CF060E070E080E090E00E9413
:100950008A028FE191E01CC00B341105D9F060E0F0
:1009600070E08FEF90E00E948A0287E491E010C06F
:1009700085E00E949701019769F40C3411051CF77A
:100980006FEF70E080E090E00E948A028FE791E0D4
:100990000E9406030E94640153CFE1EBF1E0138251
:1009A000128288EE93E0A0E0B0E084839583A68372
:1009B000B78384E091E09183808385EC90E0958714
:1009C000848784EC90E09787868780EC90E0918B19
:1009D000808B81EC90E0938B828B82EC90E0958B06
:1009E000848B86EC90E0978B868B118E128E138E03
:1009F000148E0895A1E21A2EAA1BBB1BFD010DC087
:100A0000AA1FBB1FEE1FFF1FA217B307E407F507BE
:100A100020F0A21BB30BE40BF50B661F771F881F9A
:100A2000991F1A9469F760957095809590959B0130
:100A3000AC01BD01CF010895EE0FFF1F0590F491A9
:100A4000E02D099481E090E0F8940C942705F89447
:020A5000FFCFD6
:100A520000000000EB00C6028C003801BD009B00C4
:100A6200AF000D0A0073656E736F72203D2000495E
:100A720074277320427269676874204F75747369B2
:100A820064653B204C696768747320737461747584
:100A9200733A204F46460049742773204461726BB3
:100AA200204F75747369646520627574204E6F20DF
:100AB2006D6F74696F6E203B204C4544204C696712
:100AC200687473207374617475733A204F4E0049D1
:100AD200742773204461726B204F75747369646567
:100AE2003B204C4544204C696768747320737461E1
:080AF2007475733A204F4E00A9
:00000001FF
